{
    "contractName": "OZV0",
    "abi": [
        {
            "anonymous": false,
            "inputs": [
                {
                    "indexed": true,
                    "internalType": "address",
                    "name": "from",
                    "type": "address"
                },
                {
                    "indexed": false,
                    "internalType": "uint256",
                    "name": "value",
                    "type": "uint256"
                }
            ],
            "name": "Burn",
            "type": "event"
        },
        {
            "anonymous": false,
            "inputs": [
                {
                    "indexed": false,
                    "internalType": "address",
                    "name": "previousOwner",
                    "type": "address"
                },
                {
                    "indexed": false,
                    "internalType": "address",
                    "name": "newOwner",
                    "type": "address"
                }
            ],
            "name": "OwnershipTransferred",
            "type": "event"
        },
        {
            "anonymous": false,
            "inputs": [
                {
                    "indexed": true,
                    "internalType": "address",
                    "name": "from",
                    "type": "address"
                },
                {
                    "indexed": true,
                    "internalType": "address",
                    "name": "to",
                    "type": "address"
                },
                {
                    "indexed": false,
                    "internalType": "uint256",
                    "name": "value",
                    "type": "uint256"
                }
            ],
            "name": "Transfer",
            "type": "event"
        },
        {
            "inputs": [],
            "name": "Max_Token",
            "outputs": [
                {
                    "internalType": "uint256",
                    "name": "",
                    "type": "uint256"
                }
            ],
            "stateMutability": "view",
            "type": "function"
        },
        {
            "inputs": [
                {
                    "internalType": "address",
                    "name": "tokenAddress",
                    "type": "address"
                }
            ],
            "name": "addToken",
            "outputs": [],
            "stateMutability": "nonpayable",
            "type": "function"
        },
        {
            "inputs": [
                {
                    "internalType": "address",
                    "name": "",
                    "type": "address"
                },
                {
                    "internalType": "address",
                    "name": "",
                    "type": "address"
                }
            ],
            "name": "allowance",
            "outputs": [
                {
                    "internalType": "uint256",
                    "name": "",
                    "type": "uint256"
                }
            ],
            "stateMutability": "view",
            "type": "function"
        },
        {
            "inputs": [
                {
                    "internalType": "address",
                    "name": "_spender",
                    "type": "address"
                },
                {
                    "internalType": "uint256",
                    "name": "_value",
                    "type": "uint256"
                }
            ],
            "name": "approve",
            "outputs": [
                {
                    "internalType": "bool",
                    "name": "success",
                    "type": "bool"
                }
            ],
            "stateMutability": "nonpayable",
            "type": "function"
        },
        {
            "inputs": [
                {
                    "internalType": "address",
                    "name": "",
                    "type": "address"
                }
            ],
            "name": "balanceOf",
            "outputs": [
                {
                    "internalType": "uint256",
                    "name": "",
                    "type": "uint256"
                }
            ],
            "stateMutability": "view",
            "type": "function"
        },
        {
            "inputs": [
                {
                    "internalType": "uint256",
                    "name": "_value",
                    "type": "uint256"
                }
            ],
            "name": "burn",
            "outputs": [
                {
                    "internalType": "bool",
                    "name": "success",
                    "type": "bool"
                }
            ],
            "stateMutability": "nonpayable",
            "type": "function"
        },
        {
            "inputs": [
                {
                    "internalType": "uint256",
                    "name": "value",
                    "type": "uint256"
                }
            ],
            "name": "burnTokens",
            "outputs": [],
            "stateMutability": "nonpayable",
            "type": "function"
        },
        {
            "inputs": [
                {
                    "internalType": "uint32",
                    "name": "slotNumber",
                    "type": "uint32"
                }
            ],
            "name": "calculateDrip",
            "outputs": [
                {
                    "internalType": "uint256",
                    "name": "",
                    "type": "uint256"
                }
            ],
            "stateMutability": "view",
            "type": "function"
        },
        {
            "inputs": [],
            "name": "calculateTokenPrice",
            "outputs": [
                {
                    "internalType": "uint256",
                    "name": "tokenPrice",
                    "type": "uint256"
                }
            ],
            "stateMutability": "view",
            "type": "function"
        },
        {
            "inputs": [
                {
                    "internalType": "uint32",
                    "name": "slotNumber",
                    "type": "uint32"
                }
            ],
            "name": "changeTokenPrice",
            "outputs": [],
            "stateMutability": "payable",
            "type": "function"
        },
        {
            "inputs": [],
            "name": "currentSlot",
            "outputs": [
                {
                    "internalType": "uint32",
                    "name": "",
                    "type": "uint32"
                }
            ],
            "stateMutability": "view",
            "type": "function"
        },
        {
            "inputs": [],
            "name": "decimals",
            "outputs": [
                {
                    "internalType": "uint8",
                    "name": "",
                    "type": "uint8"
                }
            ],
            "stateMutability": "view",
            "type": "function"
        },
        {
            "inputs": [
                {
                    "internalType": "uint32",
                    "name": "slotNumber",
                    "type": "uint32"
                }
            ],
            "name": "dripWithdrawal",
            "outputs": [],
            "stateMutability": "payable",
            "type": "function"
        },
        {
            "inputs": [
                {
                    "internalType": "address",
                    "name": "_root",
                    "type": "address"
                }
            ],
            "name": "initialize",
            "outputs": [],
            "stateMutability": "nonpayable",
            "type": "function"
        },
        {
            "inputs": [
                {
                    "internalType": "uint256",
                    "name": "value",
                    "type": "uint256"
                },
                {
                    "internalType": "address",
                    "name": "tokenAddress",
                    "type": "address"
                },
                {
                    "internalType": "uint32",
                    "name": "slot",
                    "type": "uint32"
                }
            ],
            "name": "invest",
            "outputs": [],
            "stateMutability": "nonpayable",
            "type": "function"
        },
        {
            "inputs": [
                {
                    "internalType": "uint32",
                    "name": "",
                    "type": "uint32"
                }
            ],
            "name": "investment",
            "outputs": [
                {
                    "internalType": "uint256",
                    "name": "time",
                    "type": "uint256"
                },
                {
                    "internalType": "uint256",
                    "name": "slotNumber",
                    "type": "uint256"
                },
                {
                    "internalType": "uint256",
                    "name": "tokenPrice",
                    "type": "uint256"
                },
                {
                    "internalType": "uint256",
                    "name": "tokens",
                    "type": "uint256"
                },
                {
                    "internalType": "address",
                    "name": "investorAddress",
                    "type": "address"
                },
                {
                    "internalType": "uint256",
                    "name": "totalTokensWithdrawan",
                    "type": "uint256"
                }
            ],
            "stateMutability": "view",
            "type": "function"
        },
        {
            "inputs": [
                {
                    "internalType": "address",
                    "name": "_to",
                    "type": "address"
                },
                {
                    "internalType": "uint256",
                    "name": "_value",
                    "type": "uint256"
                }
            ],
            "name": "mint",
            "outputs": [
                {
                    "internalType": "bool",
                    "name": "success",
                    "type": "bool"
                }
            ],
            "stateMutability": "nonpayable",
            "type": "function"
        },
        {
            "inputs": [],
            "name": "name",
            "outputs": [
                {
                    "internalType": "string",
                    "name": "",
                    "type": "string"
                }
            ],
            "stateMutability": "view",
            "type": "function"
        },
        {
            "inputs": [],
            "name": "owner",
            "outputs": [
                {
                    "internalType": "address",
                    "name": "",
                    "type": "address"
                }
            ],
            "stateMutability": "view",
            "type": "function"
        },
        {
            "inputs": [
                {
                    "internalType": "uint256",
                    "name": "value",
                    "type": "uint256"
                },
                {
                    "internalType": "address",
                    "name": "tokenAddress",
                    "type": "address"
                }
            ],
            "name": "purchaseSlot",
            "outputs": [],
            "stateMutability": "nonpayable",
            "type": "function"
        },
        {
            "inputs": [
                {
                    "internalType": "address",
                    "name": "user",
                    "type": "address"
                },
                {
                    "internalType": "address",
                    "name": "_referrer",
                    "type": "address"
                }
            ],
            "name": "register",
            "outputs": [],
            "stateMutability": "nonpayable",
            "type": "function"
        },
        {
            "inputs": [],
            "name": "rootNode",
            "outputs": [
                {
                    "internalType": "address",
                    "name": "",
                    "type": "address"
                }
            ],
            "stateMutability": "view",
            "type": "function"
        },
        {
            "inputs": [],
            "name": "symbol",
            "outputs": [
                {
                    "internalType": "string",
                    "name": "",
                    "type": "string"
                }
            ],
            "stateMutability": "view",
            "type": "function"
        },
        {
            "inputs": [
                {
                    "internalType": "address",
                    "name": "",
                    "type": "address"
                }
            ],
            "name": "tokenIsRegistered",
            "outputs": [
                {
                    "internalType": "bool",
                    "name": "",
                    "type": "bool"
                }
            ],
            "stateMutability": "view",
            "type": "function"
        },
        {
            "inputs": [],
            "name": "tokenOwner",
            "outputs": [
                {
                    "internalType": "address",
                    "name": "",
                    "type": "address"
                }
            ],
            "stateMutability": "view",
            "type": "function"
        },
        {
            "inputs": [],
            "name": "totalSupply",
            "outputs": [
                {
                    "internalType": "uint256",
                    "name": "",
                    "type": "uint256"
                }
            ],
            "stateMutability": "view",
            "type": "function"
        },
        {
            "inputs": [
                {
                    "internalType": "address",
                    "name": "_to",
                    "type": "address"
                },
                {
                    "internalType": "uint256",
                    "name": "_value",
                    "type": "uint256"
                }
            ],
            "name": "transfer",
            "outputs": [
                {
                    "internalType": "bool",
                    "name": "",
                    "type": "bool"
                }
            ],
            "stateMutability": "nonpayable",
            "type": "function"
        },
        {
            "inputs": [
                {
                    "internalType": "address",
                    "name": "_from",
                    "type": "address"
                },
                {
                    "internalType": "address",
                    "name": "_to",
                    "type": "address"
                },
                {
                    "internalType": "uint256",
                    "name": "_value",
                    "type": "uint256"
                }
            ],
            "name": "transferFrom",
            "outputs": [
                {
                    "internalType": "bool",
                    "name": "success",
                    "type": "bool"
                }
            ],
            "stateMutability": "nonpayable",
            "type": "function"
        },
        {
            "inputs": [
                {
                    "internalType": "address",
                    "name": "newOwner",
                    "type": "address"
                }
            ],
            "name": "transferOwnership",
            "outputs": [],
            "stateMutability": "nonpayable",
            "type": "function"
        },
        {
            "inputs": [
                {
                    "internalType": "address",
                    "name": "",
                    "type": "address"
                }
            ],
            "name": "users",
            "outputs": [
                {
                    "internalType": "uint256",
                    "name": "id",
                    "type": "uint256"
                },
                {
                    "internalType": "uint256",
                    "name": "registrationTime",
                    "type": "uint256"
                },
                {
                    "internalType": "address",
                    "name": "referrer",
                    "type": "address"
                }
            ],
            "stateMutability": "view",
            "type": "function"
        }
    ],
    "bytecode": "60c0604052600760808190526627ad2a37b5b2b760c91b60a09081526200002a91600391906200013f565b506040805180820190915260038082526213d69560ea1b602090920191825262000057916004916200013f565b506005805460ff191660089081179091556200007590600a62000232565b60078190556200008a906301530ce062000327565b600855600f805462037a0064ffffffff001990911617905560055460ff16601055620151806014556015805461ffff19166105b9179055348015620000ce57600080fd5b50600080546001600160a01b0319163317905560018055600280546001600160a01b031916331790556007546200010990623d090062000327565b6006556007546200011e90623d090062000327565b6002546001600160a01b03166000908152600960205260409020556200039c565b8280546200014d9062000349565b90600052602060002090601f016020900481019282620001715760008555620001bc565b82601f106200018c57805160ff1916838001178555620001bc565b82800160010185558215620001bc579182015b82811115620001bc5782518255916020019190600101906200019f565b50620001ca929150620001ce565b5090565b5b80821115620001ca5760008155600101620001cf565b80825b6001808611620001f9575062000229565b8187048211156200020e576200020e62000386565b808616156200021c57918102915b9490941c938002620001e8565b94509492505050565b60006200024360001984846200024a565b9392505050565b6000826200025b5750600162000243565b816200026a5750600062000243565b81600181146200028357600281146200028e57620002c2565b600191505062000243565b60ff841115620002a257620002a262000386565b6001841b915084821115620002bb57620002bb62000386565b5062000243565b5060208310610133831016604e8410600b8410161715620002fa575081810a83811115620002f457620002f462000386565b62000243565b620003098484846001620001e5565b8086048211156200031e576200031e62000386565b02949350505050565b600081600019048311821515161562000344576200034462000386565b500290565b600181811c908216806200035e57607f821691505b602082108114156200038057634e487b7160e01b600052602260045260246000fd5b50919050565b634e487b7160e01b600052601160045260246000fd5b611ef280620003ac6000396000f3fe6080604052600436106101cd5760003560e01c8063845fd946116100f7578063aa67735411610095578063dd62ed3e11610064578063dd62ed3e1461064b578063f2c1827f14610683578063f2fde38b146106a3578063faff50a8146106c3576101cd565b8063aa677354146105d6578063b1fa0682146105f6578063c4d66de81461060b578063d48bfca71461062b576101cd565b806399ec8128116100d157806399ec81281461051a578063a3e676101461052d578063a87430ba1461054d578063a9059cbb146105b6576101cd565b8063845fd946146104bd5780638da5cb5b146104d357806395d89b4114610505576101cd565b80633359632e1161016f5780636cc1c8c01161013e5780636cc1c8c0146104205780636d1b229d1461044057806370a0823114610460578063805b5b741461048d576101cd565b80633359632e1461031757806337a9ff911461034e57806340c10f19146103e057806342966c6814610400576101cd565b806318160ddd116101ab57806318160ddd146102875780632321f3cc146102ab57806323b872dd146102cb578063313ce567146102eb576101cd565b806306fdde03146101d2578063095ea7b3146101fd5780631048736b14610255575b600080fd5b3480156101de57600080fd5b506101e76106e3565b6040516101f49190611bca565b60405180910390f35b34801561020957600080fd5b50610245610218366004611ada565b336000908152600a602090815260408083206001600160a01b039590951683529390529190912055600190565b60405190151581526020016101f4565b610285610263366004611bb0565b600f805463ffffffff9092166101000264ffffffff0019909216919091179055565b005b34801561029357600080fd5b5061029d60065481565b6040519081526020016101f4565b3480156102b757600080fd5b506102856102c6366004611b53565b610771565b3480156102d757600080fd5b506102456102e6366004611a9f565b610cbe565b3480156102f757600080fd5b506005546103059060ff1681565b60405160ff90911681526020016101f4565b34801561032357600080fd5b50600f5461033990610100900463ffffffff1681565b60405163ffffffff90911681526020016101f4565b34801561035a57600080fd5b506103aa610369366004611bb0565b60136020526000908152604090208054600182015460028301546003840154600485015460059095015493949293919290916001600160a01b039091169086565b6040805196875260208701959095529385019290925260608401526001600160a01b0316608083015260a082015260c0016101f4565b3480156103ec57600080fd5b506102456103fb366004611ada565b610d72565b34801561040c57600080fd5b5061024561041b366004611b23565b610e65565b34801561042c57600080fd5b5061029d61043b366004611bb0565b610efc565b34801561044c57600080fd5b5061028561045b366004611b23565b610fb2565b34801561046c57600080fd5b5061029d61047b366004611a53565b60096020526000908152604090205481565b34801561049957600080fd5b506102456104a8366004611a53565b60126020526000908152604090205460ff1681565b3480156104c957600080fd5b5061029d60085481565b3480156104df57600080fd5b506000546001600160a01b03165b6040516001600160a01b0390911681526020016101f4565b34801561051157600080fd5b506101e7610fe9565b610285610528366004611bb0565b610ff6565b34801561053957600080fd5b506002546104ed906001600160a01b031681565b34801561055957600080fd5b50610592610568366004611a53565b6011602052600090815260409020805460018201546002909201549091906001600160a01b031683565b6040805193845260208401929092526001600160a01b0316908201526060016101f4565b3480156105c257600080fd5b506102456105d1366004611ada565b611103565b3480156105e257600080fd5b506102856105f1366004611a6d565b611110565b34801561060257600080fd5b5061029d6111d4565b34801561061757600080fd5b50610285610626366004611a53565b61128b565b34801561063757600080fd5b50610285610646366004611a53565b611306565b34801561065757600080fd5b5061029d610666366004611a6d565b600a60209081526000928352604080842090915290825290205481565b34801561068f57600080fd5b5061028561069e366004611b75565b6113bd565b3480156106af57600080fd5b506102856106be366004611a53565b6116c4565b3480156106cf57600080fd5b50600c546104ed906001600160a01b031681565b600380546106f090611e0c565b80601f016020809104026020016040519081016040528092919081815260200182805461071c90611e0c565b80156107695780601f1061073e57610100808354040283529160200191610769565b820191906000526020600020905b81548152906001019060200180831161074c57829003601f168201915b505050505081565b600082116107c65760405162461bcd60e51b815260206004820152601d60248201527f4f5a56303a20496e73756666696369656e7420696e766573746d656e7400000060448201526064015b60405180910390fd5b336000908152601160205260409020600101546108215760405162461bcd60e51b815260206004820152601960248201527813d6958c0e88155cd95c881b9bdd081c9959da5cdd195c9959603a1b60448201526064016107bd565b6001600160a01b03811660009081526012602052604090205460ff166108895760405162461bcd60e51b815260206004820152601d60248201527f4f5a56303a546f6b656e206973206e6f7420207265676973746572656400000060448201526064016107bd565b600b80546001600160a01b0319166001600160a01b0383169081179091556040805163313ce56760e01b815290516000929163313ce56791600480830192602092919082900301818787803b1580156108e157600080fd5b505af11580156108f5573d6000803e3d6000fd5b505050506040513d601f19601f820116820180604052508101906109199190611b3b565b61092490600a611cd2565b9050610931816064611db3565b831015801561094b575061094781611f40611db3565b8311155b6109925760405162461bcd60e51b815260206004820152601860248201527713d6958c0e88125b9d985b1a59081a5b9d995cdd1b595b9d60421b60448201526064016107bd565b600b546040516323b872dd60e01b8152336004820152306024820152604481018590526001600160a01b03909116906323b872dd90606401602060405180830381600087803b1580156109e457600080fd5b505af11580156109f8573d6000803e3d6000fd5b505050506040513d601f19601f82011682018060405250810190610a1c9190611b03565b506000610a2a600585611c6c565b90506000610a3a8361012c611db3565b851015610a5357610a4c600a86611c6c565b9050610a61565b610a5e83601e611db3565b90505b600b54336000908152601160205260409081902060020154905163a9059cbb60e01b81526001600160a01b0391821660048201526024810184905291169063a9059cbb90604401602060405180830381600087803b158015610ac257600080fd5b505af1158015610ad6573d6000803e3d6000fd5b505050506040513d601f19601f82011682018060405250810190610afa9190611b03565b50600b54600d546001600160a01b039182169163a9059cbb9116610b1e8486611dd2565b6040516001600160e01b031960e085901b1681526001600160a01b0390921660048301526024820152604401602060405180830381600087803b158015610b6457600080fd5b505af1158015610b78573d6000803e3d6000fd5b505050506040513d601f19601f82011682018060405250810190610b9c9190611b03565b506000610ba76111d4565b600f805463ffffffff61010091829004811660009081526013602052604080822060020186905584548490048316825280822042905584548490048316808352818320600101559354929092041681522060040180546001600160a01b031916331790559050610c178482611db3565b601054610c249088611db3565b610c2e9190611c6c565b600f805463ffffffff61010091829004811660009081526013602052604080822060039081019690965560105494549390930490911681522090910154610c7b9130916103fb9190611db3565b50600f8054610100900463ffffffff16906001610c9783611e62565b91906101000a81548163ffffffff021916908363ffffffff16021790555050505050505050565b6001600160a01b0383166000908152600a60209081526040808320338452909152812054821115610d235760405162461bcd60e51b815260206004820152600f60248201526e20b63637bbb0b731b29032b93937b960891b60448201526064016107bd565b6001600160a01b0384166000908152600a6020908152604080832033845290915281208054849290610d56908490611dd2565b90915550610d6790508484846117df565b5060015b9392505050565b600060085482600654610d859190611c54565b11610e5c573360009081526009602052604081208054849290610da9908490611c54565b909155505033600090815260096020526040902054821115610dca57600080fd5b3360009081526009602052604081208054849290610de9908490611dd2565b90915550506001600160a01b03831660009081526009602052604081208054849290610e16908490611c54565b90915550506040518281526001600160a01b0384169033907fddf252ad1be2c89b69c2b068fc378daa952ba7f163c4a11628f55a4df523b3ef9060200160405180910390a35b50600192915050565b33600090815260096020526040812054821115610e8157600080fd5b3360009081526009602052604081208054849290610ea0908490611dd2565b925050819055508160086000828254610eb99190611dd2565b909155505060405182815233907fcc16f5dbb4873280815c1ee09dbd06736cffcc184412cf7a71a0fdb75d397ca59060200160405180910390a25060015b919050565b60145463ffffffff82166000908152601360205260408120549091829182918291610f279042611dd2565b610f319190611c6c565b925060b4831115610fa65760155463ffffffff8616600090815260136020526040902060030154610f669161ffff1690611c6c565b915061066d8311610f8d57610f7c60b484611dd2565b610f869083611db3565b9050610f9c565b610f99826105b9611db3565b90505b9250610ef7915050565b60009350505050610ef7565b600c546001600160a01b03163314610fdc5760405162461bcd60e51b81526004016107bd90611c1d565b610fe581610e65565b5050565b600480546106f090611e0c565b336000908152601160205260409020600101546110515760405162461bcd60e51b815260206004820152601960248201527813d6958c0e88155cd95c881b9bdd081c9959da5cdd195c9959603a1b60448201526064016107bd565b600061105c82610efc565b63ffffffff83166000908152601360205260409020600501549091506110829082611dd2565b9050600081116110c65760405162461bcd60e51b815260206004820152600f60248201526e04f5a56303a205a65726f206472697608c1b60448201526064016107bd565b63ffffffff8216600090815260136020526040812060050180548392906110ee908490611c54565b909155506110fe90503382611103565b505050565b6000610e5c3384846117df565b600c546001600160a01b0316331461113a5760405162461bcd60e51b81526004016107bd90611c1d565b611161604051806040016040528060068152602001650a4c2d4cae6d60d31b815250611970565b6001600160a01b038216600090815260116020526040902060010154156111ca5760405162461bcd60e51b815260206004820152601960248201527f4f5a56303a205573657220616c7265616479206578697374730000000000000060448201526064016107bd565b610fe582826119b3565b6000808060015b60098160ff1611611284576111f181600a611ce1565b6111fc906008611db3565b6112069084611c54565b925060088160ff1611158015611232575061122283600a611c54565b600f54610100900463ffffffff16105b1561125f57611242600282611de9565b61124d90600a611ce1565b611258906008611db3565b9150611284565b8060ff1660091415611272576298968091505b8061127c81611e86565b9150506111db565b5091505090565b600f5460ff16156112ce5760405162461bcd60e51b815260206004820152600d60248201526c13d6958c0e8812539590531251609a1b60448201526064016107bd565b600f805460ff19166001179055600c80546001600160a01b0383166001600160a01b03199091161790556113038160006119b3565b50565b600c546001600160a01b031633146113305760405162461bcd60e51b81526004016107bd90611c1d565b6001600160a01b03811660009081526012602052604090205460ff16156113995760405162461bcd60e51b815260206004820152601960248201527f4f5a56303a546f6b656e20616c7265616479206578697374730000000000000060448201526064016107bd565b6001600160a01b03166000908152601260205260409020805460ff19166001179055565b6000831161140d5760405162461bcd60e51b815260206004820152601d60248201527f4f5a56303a20496e73756666696369656e7420696e766573746d656e7400000060448201526064016107bd565b63ffffffff81166000908152601360205260409020600401546001600160a01b0316331461147d5760405162461bcd60e51b815260206004820181905260248201527f4f5a56303a20536c6f7420697320616c7265616479207265676973746572656460448201526064016107bd565b600b80546001600160a01b0319166001600160a01b0384169081179091556040805163313ce56760e01b815290516000929163313ce56791600480830192602092919082900301818787803b1580156114d557600080fd5b505af11580156114e9573d6000803e3d6000fd5b505050506040513d601f19601f8201168201806040525081019061150d9190611b3b565b61151890600a611cd2565b63ffffffff831660009081526013602052604090206002015490915061154082611f40611db3565b61154a8387611db3565b63ffffffff851660009081526013602052604090206003015461156e908490611db3565b6115789190611c54565b11156115c15760405162461bcd60e51b815260206004820152601860248201527713d6958c0e88125b9d985b1a59081a5b9d995cdd1b595b9d60421b60448201526064016107bd565b600b546040516323b872dd60e01b8152336004820152306024820152604481018790526001600160a01b03909116906323b872dd90606401602060405180830381600087803b15801561161357600080fd5b505af1158015611627573d6000803e3d6000fd5b505050506040513d601f19601f8201168201806040525081019061164b9190611b03565b5060006116588383611db3565b6010546116659088611db3565b61166f9190611c6c565b600f54610100900463ffffffff166000908152601360205260408120600301805492935083929091906116a3908490611c54565b90915550506010546116bb9030906103fb9084611db3565b50505050505050565b6000546001600160a01b031633146117195760405162461bcd60e51b815260206004820152601860248201527721bab9ba37b6a7bbb730b136329d102327a92124a22222a760411b60448201526064016107bd565b6001600160a01b03811661176a5760405162461bcd60e51b815260206004820152601860248201527721bab9ba37b6a7bbb730b136329d102327a92124a22222a760411b60448201526064016107bd565b7f8be0079c531659141344cd1fd0a4f28419497f9722a3daafe3b4186f6b6457e061179d6000546001600160a01b031690565b604080516001600160a01b03928316815291841660208301520160405180910390a1600080546001600160a01b0319166001600160a01b038316179055611303565b6001600160a01b0382166117f257600080fd5b6001600160a01b03831660009081526009602052604090205481111561181757600080fd5b6001600160a01b03821660009081526009602052604090205461183a8282611c54565b101561184557600080fd5b6001600160a01b03808316600090815260096020526040808220549286168252812054909161187391611c54565b6001600160a01b0385166000908152600960205260408120805492935084929091906118a0908490611dd2565b90915550506001600160a01b038316600090815260096020526040812080548492906118cd908490611c54565b92505081905550826001600160a01b0316846001600160a01b03167fddf252ad1be2c89b69c2b068fc378daa952ba7f163c4a11628f55a4df523b3ef8460405161191991815260200190565b60405180910390a36001600160a01b03808416600090815260096020526040808220549287168252902054829161194f91611c54565b1461196a57634e487b7160e01b600052600160045260246000fd5b50505050565b611303816040516024016119849190611bca565b60408051601f198184030181529190526020810180516001600160e01b031663104c13eb60e21b179052611a07565b6001600160a01b0382811660009081526011602052604081206002810180546001600160a01b03191693851693909317909255426001830155600e805492839055906119fe83611e47565b91905055505050565b80516a636f6e736f6c652e6c6f67602083016000808483855afa5050505050565b80356001600160a01b0381168114610ef757600080fd5b803563ffffffff81168114610ef757600080fd5b600060208284031215611a64578081fd5b610d6b82611a28565b60008060408385031215611a7f578081fd5b611a8883611a28565b9150611a9660208401611a28565b90509250929050565b600080600060608486031215611ab3578081fd5b611abc84611a28565b9250611aca60208501611a28565b9150604084013590509250925092565b60008060408385031215611aec578182fd5b611af583611a28565b946020939093013593505050565b600060208284031215611b14578081fd5b81518015158114610d6b578182fd5b600060208284031215611b34578081fd5b5035919050565b600060208284031215611b4c578081fd5b5051919050565b60008060408385031215611b65578182fd5b82359150611a9660208401611a28565b600080600060608486031215611b89578283fd5b83359250611b9960208501611a28565b9150611ba760408501611a3f565b90509250925092565b600060208284031215611bc1578081fd5b610d6b82611a3f565b6000602080835283518082850152825b81811015611bf657858101830151858201604001528201611bda565b81811115611c075783604083870101525b50601f01601f1916929092016040019392505050565b6020808252601f908201527f4f5a56303a204f6e6c79206f776e657220686173207468652061636365737300604082015260600190565b60008219821115611c6757611c67611ea6565b500190565b600082611c8757634e487b7160e01b81526012600452602481fd5b500490565b80825b6001808611611c9e5750611cc9565b818704821115611cb057611cb0611ea6565b80861615611cbd57918102915b9490941c938002611c8f565b94509492505050565b6000610d6b6000198484611cef565b6000610d6b60001960ff8516845b600082611cfe57506001610d6b565b81611d0b57506000610d6b565b8160018114611d215760028114611d2b57611d58565b6001915050610d6b565b60ff841115611d3c57611d3c611ea6565b6001841b915084821115611d5257611d52611ea6565b50610d6b565b5060208310610133831016604e8410600b8410161715611d8b575081810a83811115611d8657611d86611ea6565b610d6b565b611d988484846001611c8c565b808604821115611daa57611daa611ea6565b02949350505050565b6000816000190483118215151615611dcd57611dcd611ea6565b500290565b600082821015611de457611de4611ea6565b500390565b600060ff821660ff841680821015611e0357611e03611ea6565b90039392505050565b600181811c90821680611e2057607f821691505b60208210811415611e4157634e487b7160e01b600052602260045260246000fd5b50919050565b6000600019821415611e5b57611e5b611ea6565b5060010190565b600063ffffffff80831681811415611e7c57611e7c611ea6565b6001019392505050565b600060ff821660ff811415611e9d57611e9d611ea6565b60010192915050565b634e487b7160e01b600052601160045260246000fdfea2646970667358221220667fff17ffb372fd13477b8689530083ca9ca699efad06571b14b2cf7438741164736f6c63430008030033",
    "sourcePath": "/home/user/Documents/hardhatContracts/oz/contracts/OZV0.sol",
    "compiler": {
        "name": "solc",
        "version": "0.8.3+commit.8d00100c"
    },
    "functionHashes": {
        "Max_Token()": "845fd946",
        "addToken(address)": "d48bfca7",
        "allowance(address,address)": "dd62ed3e",
        "approve(address,uint256)": "095ea7b3",
        "balanceOf(address)": "70a08231",
        "burn(uint256)": "42966c68",
        "burnTokens(uint256)": "6d1b229d",
        "calculateDrip(uint32)": "6cc1c8c0",
        "calculateTokenPrice()": "b1fa0682",
        "changeTokenPrice(uint32)": "1048736b",
        "currentSlot()": "3359632e",
        "decimals()": "313ce567",
        "dripWithdrawal(uint32)": "99ec8128",
        "initialize(address)": "c4d66de8",
        "invest(uint256,address,uint32)": "f2c1827f",
        "investment(uint32)": "37a9ff91",
        "mint(address,uint256)": "40c10f19",
        "name()": "06fdde03",
        "owner()": "8da5cb5b",
        "purchaseSlot(uint256,address)": "2321f3cc",
        "register(address,address)": "aa677354",
        "rootNode()": "faff50a8",
        "symbol()": "95d89b41",
        "tokenIsRegistered(address)": "805b5b74",
        "tokenOwner()": "a3e67610",
        "totalSupply()": "18160ddd",
        "transfer(address,uint256)": "a9059cbb",
        "transferFrom(address,address,uint256)": "23b872dd",
        "transferOwnership(address)": "f2fde38b",
        "users(address)": "a87430ba"
    },
    "gasEstimates": {
        "creation": {
            "codeDepositCost": "1584400",
            "executionCost": "infinite",
            "totalCost": "infinite"
        },
        "external": {
            "Max_Token()": "1041",
            "addToken(address)": "23074",
            "allowance(address,address)": "infinite",
            "approve(address,uint256)": "20622",
            "balanceOf(address)": "1308",
            "burn(uint256)": "infinite",
            "burnTokens(uint256)": "infinite",
            "calculateDrip(uint32)": "infinite",
            "calculateTokenPrice()": "infinite",
            "changeTokenPrice(uint32)": "21201",
            "currentSlot()": "1070",
            "decimals()": "1125",
            "dripWithdrawal(uint32)": "infinite",
            "initialize(address)": "124799",
            "invest(uint256,address,uint32)": "infinite",
            "investment(uint32)": "5491",
            "mint(address,uint256)": "infinite",
            "name()": "infinite",
            "owner()": "1088",
            "purchaseSlot(uint256,address)": "infinite",
            "register(address,address)": "infinite",
            "rootNode()": "1147",
            "symbol()": "infinite",
            "tokenIsRegistered(address)": "1342",
            "tokenOwner()": "1104",
            "totalSupply()": "1041",
            "transfer(address,uint256)": "infinite",
            "transferFrom(address,address,uint256)": "infinite",
            "transferOwnership(address)": "24324",
            "users(address)": "3019"
        },
        "internal": {
            "saveUserDetails(address,address)": "81881"
        }
    }
}